:020000040800F2
:100000000047002085020008BB2200083B190008B9
:10001000F51C0008711300084D40000800000000A6
:10002000000000000000000000000000ED010008DA
:10003000251400080000000031020008C12C00084F
:100040009F0200089F0200089F0200089F0200080C
:100050009F0200089F0200089F0200082914000860
:100060005514000881140008AD1400089F02000810
:100070009F0200089F0200089F0200089F020008DC
:100080009F0200089F0200089F0200089F020008CC
:100090009F0200089F0200089F0200089F020008BC
:1000A0009F0200089F0200089F0200089F020008AC
:1000B0009F020008792E00089F0200089F02000896
:1000C0009F0200089F0200089F0200089F0200088C
:1000D0009F020008C93A00089F020008E93B000897
:1000E0009F0200089F0200089F02000800F002F82B
:1000F00000F06CF80AA090E8000C82448344AAF156
:100100000107DA4501D100F061F8AFF2090EBAE853
:100110000F0013F0010F18BFFB1A43F0010318473B
:1001200098760000B87600000A444FF0000C10F8F2
:10013000013B13F0070408BF10F8014B1D1108BF65
:1001400010F8015B641E05D010F8016B641E01F805
:10015000016BF9D113F0080F1EBF10F8014BAD1C55
:100160000C1B09D16D1E58BF01F801CBFAD505E073
:1001700014F8016B01F8016B6D1EF9D59142D6D3CD
:10018000704700000023002400250026103A28BFF5
:1001900078C1FBD8520728BF30C148BF0B607047F9
:1001A000642900F0D580002070471FB59DE803004A
:1001B00000F0E4FA00F09CFC04000020002104F0B0
:1001C000ABFF401C60601FBD10B510BD00F06BFCA4
:1001D0001146FFF7EAFF04F047FA00F09BFC03B476
:1001E000FFF7F2FF03BC00F0CBFC0000224B1968C4
:1001F0000868B0E8F00F80F30988BFF36F8F4FF005
:10020000000080F311884EF00D0E704700000000D2
:1002100006480068006880F3088862B661B6BFF3DC
:100220004F8FBFF36F8F00DF00BF00BF08ED00E00E
:10023000EFF30980BFF36F8F0F4B1A6820E9F00FBF
:10024000106008B54FF0500080F31188BFF34F8F56
:10025000BFF36F8F04F0E0FD4FF0000080F31188D2
:10026000BDE8084019680868B0E8F00F80F3098815
:10027000BFF36F8F704700BF74010020EFF305805C
:10028000704700000948804709480047FEE7FEE73D
:10029000FEE7FEE7FEE7FEE7FEE7FEE7FEE7FEE736
:1002A00004480549054A064B70470000ED2C00083C
:1002B000ED000008003B0020004700200043002024
:1002C0000043002070B5064600F038FA056806F1D4
:1002D0000B0020F00704B4429CBF002070BD2B46E9
:1002E0006A68BAB11068A04210D304F108018842CC
:1002F0003CBF5068586007D35168101941601168BD
:10030000091B016058601460101D70BD13465268CF
:10031000002AE7D12146284600F01CFA0028DED149
:1003200070BD00000FB41CB5084B06AA7B4469469B
:100330000090059800F0E9FA04460020694600F0B4
:10034000F7FA20461CBC5DF814FB00000106000013
:100350002DE9F0410646002410687529314616A59E
:1003600010D0AFF30080002802DA404213A507E066
:1003700031688A0701D512A502E0490704D511A505
:10038000012401E0AFF3008000210A2206F12407D6
:1003900009E0B0FBF2FCB0FBF2F302FB1C003030D2
:1003A00078541846491C0028F3D123462A46304683
:1003B000BDE8F04100F04ABA000000002D00000046
:1003C0002B000000200000002DE9F05F8946044664
:1003D0004FF0000ADFF874B1FB44C0F820A02046BB
:1003E000E1688847002874D0252806D0D4E9012187
:1003F0009047206A401C2062F1E700265F462046B5
:10040000E16888472028054607DB312D05D2781999
:1004100010F8200C08B10643F1E7B00701D526F02B
:100420000406C4F81CA00027C4F818A02A2D09D07F
:10043000284603F072FE38B304EB8708303DC8F855
:10044000185019E059F8041B204604EB870291610B
:10045000E1688847012F054618D1E069002820DAB5
:1004600026F020061DE0D8F8180000EB800005EB10
:1004700040003038C8F818002046E1688847054633
:1004800003F04BFE0028EED1012F0AD02E2D08D10B
:100490002046E16888477F1C0546022F46F020066B
:1004A000C4DBA069002803DA404246F00106A061DF
:1004B000F00701D026F010066C2D0BD0682D09D066
:1004C0004C2D39D06A2D35D0742D35D07A2D33D0BE
:1004D00016E038E0E1682F4620468847B8420546D6
:1004E00009D16C2F26D04FF48060E1680643204686
:1004F0008847054604E06C2F1AD04FF480700643FD
:100500000DB3A5F14100192802D8203546F4006644
:100510004A462946204626604E46FFF741FE80B1F6
:1005200001280BD0F61D26F0070000F1080956E758
:100530004020E4E78020D8E70020D6E706F1040950
:100540004DE7284652E7206ABDE8F09F847300001B
:1005500070B5064600F0F6F80468054630460A22F3
:10056000002100F0EAF92C6070BD401ECAB210F8FC
:10057000011F8A4202D00029F9D10020704730B50E
:1005800005460B462A4613F8014B12F8010B08B139
:10059000A042F8D01CB1002802D06D1CF1E728461B
:1005A00030BD421E12F8013F002BFBD111F8013B78
:1005B000002B02F8013BF9D1704702F0FF0343EA38
:1005C000032242EA024200F002B84FF0000204297E
:1005D000C0F0128010F0030C00F01B80CCF1040C72
:1005E000BCF1020F18BF00F8012BA8BF20F8022BA6
:1005F000A1EB0C0100F00DB85FEAC17C24BF00F84C
:10060000012B00F8012B48BF00F8012B70474FF079
:10061000000200B5134694469646203922BFA0E852
:100620000C50A0E80C50B1F12001BFF4F7AF09075E
:1006300028BFA0E80C5048BF0CC05DF804EB89004F
:1006400028BF40F8042B08BF704748BF20F8022B92
:1006500011F0804F18BF00F8012B704710B5044609
:1006600010F0030F08BF11F0030F40F015804FF09A
:10067000013E121FC0F20E8051F8043BA3EB0E0C9A
:100680002CEA030C1CEACE1C08BF40F8043BF0D057
:10069000A1F1040102F10402521E08DB11F8013B32
:1006A000002B00F8013BF7D11146FFF78EFF2046E3
:1006B00010BD00004FF0013C50F8042B51F8043BF2
:1006C0009A4221D1A2EB0C03934313EACC1317D126
:1006D00050F8042B51F8043B9A4215D1A2EB0C03BD
:1006E000934313EACC130BD150F8042B51F8043B7D
:1006F0009A4209D1A2EB0C03934313EACC13DBD04B
:100700004FF00000704700BFD01A01BAB1FA81F172
:1007100001F0180122FA01F0CB40C1F12001DBB257
:10072000C0B2C01A2CFA01F3D11A914311EAC311D5
:10073000E6D1704770477047704700000048704727
:10074000A43A0020004870479C3A00207047704748
:100750007047704738B504460A4600206946AFF333
:100760000080002808BF38BD02460099204600F0EE
:1007700029F9012038BD012000F08DB9F8B5AFF39B
:100780000080054600200C46102000BF0646A81930
:10079000A0420DD9324669460020AFF30080070021
:1007A00008BF00F078F90098A04218BF0546C419A8
:1007B000FFF7C4FF05600746F01D20F0070046194B
:1007C000284600F00AF8B44208BFF8BDA21B314623
:1007D0003868BDE8F84000F0F5B800210160C0E9D4
:1007E000011070471020704770B50446051FFFF7D1
:1007F000A5FF0068002C14BF446870BD002C18BF12
:10080000AC423CBF20466468F8D301680A18AA428B
:1008100018BF456003D12A68054611440160286865
:100820004119A1421CBF6C6070BD6168696021689C
:100830000844286070BD10B5FFF784FF006810BD44
:1008400010B50446FFF77EFF046010BD2DE9F047A8
:100850000D4699469246044600F124080168880630
:1008600004D5E06921F01001216000E00120A842D8
:1008700001DD471B00E00027A1697A1902EB09009E
:10088000081AA0612078C00602D42046AFF3008089
:10089000002608E0D4E901211AF806009047206AF2
:1008A000401C761C20624E45F4DB2078C0060AD539
:1008B0002046AFF3008006E0D4E9012130209047C4
:1008C000206A401C2062381EA7F10107F4DC07E013
:1008D000D4E9012118F805009047206A401C2062E5
:1008E000281EA5F10105F3DC2046AFF30080207837
:1008F000000602D50220BDE8F0870120FBE70000DA
:1009000001694A1C02610878704700B58FB0CDE9D3
:1009100001310021059105497944CDE903101146C3
:100920006846FFF751FD0FB000BD0000E5FFFFFF77
:100930000A6802F8010B0A6070472DE9F0479146FA
:100940000F4680460446002614F8015B2DB100F0E6
:1009500031F80068405DC007F6D12B2D02D02D2D57
:1009600018D0641E4A463946204600F045F827B1A3
:100970003968A14201D1C7F800804FF00204710527
:100980000BD54042002803DDFFF7DCFE0460A00722
:10099000BDE8F08746F48066E4E70028F8DAFFF760
:1009A000D1FE04606FF00040F2E70000004870479D
:1009B0009C3A002010B500F09BF8001D10BD00BF50
:1009C00059470000034640688C46002818BF8842FB
:1009D0003CBF03464068F8D318681844884207D0E3
:1009E0000CF1030020F00700001D411A521A0146C5
:1009F000081D0A60FFF7F8BE2DE9F05F8246154634
:100A00008B4600270AF10104B9460078302801D04E
:100A10009DB113E014F8010B0127782803D0582862
:100A200001D045B10AE00DB1102D07D1002714F80F
:100A3000010B102502E0082500E00A250026B0463B
:100A40000EE005FB080005FB06F101271FFA80F800
:100A500001EB1046B6F5803F00D3B94614F8010B00
:100A6000294600F049F80028EBDABBF1000F05D069
:100A70000FB1641E00E05446CBF80040B9F1000FFE
:100A800006D0FFF75FFE02210160C81EBDE8F09F9F
:100A900048EA0640FAE710B500F04AF8BDE8104011
:100AA00000F041B870477546FFF780FFAE4605007D
:100AB0006946534620F00700854618B020B5FFF779
:100AC000EFFBBDE820404FF000064FF000074FF06D
:100AD00000084FF0000B21F00701AC46ACE8C0095C
:100AE000ACE8C009ACE8C009ACE8C0098D46704765
:100AF00000487047BC3A00203A2800D2303820F035
:100B00002002412A01D3A2F13700884201D34FF0DD
:100B1000FF30704710B50446AFF300802046BDE8B3
:100B20001040FFF75CBB002801D000F029B87047E7
:100B300010B5012805D0002103A000F027F80120FE
:100B400010BD09A1F8E7000053494752544D454DE7
:100B50003A204F7574206F662068656170206D655E
:100B60006D6F7279000000003A2048656170206D59
:100B7000656D6F727920636F727275707465640051
:100B800001491820ABBEFEE72600020070B50546FD
:100B90000C460A2000E06D1C00F011F835B12878F1
:100BA0000028F8D102E0641C00F009F814B12078A4
:100BB0000028F8D1BDE870400A20AFF3008008B5E6
:100BC00069468DF800000320ABBE08BD10B5114C7E
:100BD000E078062801D100F01FF8E078022801D162
:100BE00000F0AEF8E078012801D100F01BF8E078C1
:100BF000032801D100F0C2FAE078042801D100F006
:100C000019F9E078052803D1BDE8104000F056BB83
:100C100010BD00004401002001488068C068004702
:100C20004401002010B500F00DF8044801680448A4
:100C30000078BDE8104002F015BB000094000020D1
:100C4000440100202DE9F047DFF8AC802B4E002452
:100C500098F80000012809D10220F07070687178BE
:100C6000806801F0B7FAB06088F80040244DDFF8E2
:100C70009490DFF894A0287801280FD13078401E96
:100C8000C1B2317099F8000000F052F8307001469E
:100C9000DAF8000001F090FA70602C701B4F387881
:100CA00001280FD13078401CC1B2317099F8000092
:100CB00000F03EF830700146DAF8000001F07CFAEE
:100CC00070603C7098F80000114902280DD0087837
:100CD00002280AD02B78022B07D03B78022B04D0B5
:100CE000012800D10C70BDE8F08788F800400C7036
:100CF0002C703C70F7E700001E000020440100202B
:100D0000200000206B000020940000202100002023
:100D10001F000020044810B50121006801F04CFAC2
:100D20000249486010BD00009400002044010020EA
:100D3000814201D809B10846704701207047000080
:100D400010B500F00DF8054B5868D0E9021090F985
:100D500000205878BDE8104002F082BB440100201A
:100D60002DE9F0472E4DDFF8BC9000246868C66876
:100D700099F80000012806D1A868E91C007D00F060
:100D8000DDF989F80040DFF8A0A09AF800000128FA
:100D900003D1E87068708AF80040DFF8908098F816
:100DA0000000012810D16878401EC1B26970307807
:100DB000FFF7BEFF687069688A680146104601F057
:100DC00009FAA86088F80040194F387801280FD137
:100DD0006878401CC1B269703078FFF7A9FF68706D
:100DE00069688A680146104601F0F4F9A8603C7011
:100DF00099F80010022901D189F800409AF80010F2
:100E0000022901D18AF8004098F80010022901D186
:100E100088F800403878022800D13C70BDE8F0879F
:100E2000440100201E0000201F00002020000020A0
:100E30002100002010B500F005F8BDE8104000F0DA
:100E40002BB8000007488068007A012805D00228E6
:100E500005D0032805D100F03DB900F0FDB800F041
:100E600051B87047440100200A4810B5C1780429E0
:100E70000FD18068017A03290BD10069007A00281C
:100E800007D000F0E3F9BDE810404FF47A7003F0AA
:100E90008BBE10BD44010020194B00B59A6885B087
:100EA000107A01280ED0022814D0032808D1106926
:100EB000416809680091016850686A4602F08CFD3B
:100EC00005B000BD10690168506805B05DF804EB1D
:100ED00002F0B4BC106901680968029141680968B0
:100EE000039181680968049199780069CDE900014E
:100EF000506804AB03AA02A902F0EAFBE0E7000095
:100F0000440100202DE9F041294D2A4E0024287883
:100F1000012805D1B068F11C007D00F00FF92C709C
:100F2000254F3878012803D100F04EF8032038709F
:100F3000DFF8888098F80000012803D100F068F8F5
:100F400088F80040387802280ED170681C49406843
:100F5000FFF715FB38B9B078401EC1B2B17003205D
:100F6000FFF7E6FEB0703C7098F800004746022894
:100F70000ED1706812494068FFF701FB38B9B078AC
:100F8000401CC1B2B1700320FFF7D2FEB0703C70BC
:100F90000C490878012808D0022802D028780228B5
:100FA00001D10C702C70BDE8F0810C70F6E70000E8
:100FB0001F0000204401002020000020210000200C
:100FC000D60000201E000020104B98689B78026914
:100FD000012B07CA07D0022B0ED0032B02D11068B9
:100FE000401E106070470168491E016012689142FE
:100FF000F8DA491C016070470A68521E0A600068EE
:101000008242F8DA521C0A60704700004401002056
:10101000104B98689B780269012B07CA0CD0022BF1
:1010200013D0032B07D11168491C1160006881425D
:1010300001DD491E116070470268521C0260096898
:101040008A42F8DD521E026070470868401C086042
:10105000704700004401002030B51948194D0023A5
:10106000806801690C682978012905D11449007D3F
:10107000C91C00F063F82B7013490878022802D1CC
:10108000012020700B70114A1078022801D12370C2
:1010900013700F4C2078012805D0022803D028783F
:1010A000022802D002E02370F9E72B7008780128AB
:1010B00000D10B701078012800D1137030BD0000F2
:1010C000440100201F0000202000002021000020FB
:1010D0001E00002070B5144A00211078012803D1A9
:1010E000124B0220D8701170114D124B124C2878FF
:1010F000012815D01E78012E12D02678012E0FD08F
:10110000022808D01078022805D01878022802D0CA
:101110002078022803D1297011701970217070BDD8
:10112000297019702170EDE71F0000204401002094
:101130001E00002020000020210000200E4A92689E
:10114000127A042A09D00A78022A08D0042A0DD17A
:1011500078B10522022808D005E006200AE030B167
:101160000322012801D0032800D10A70704704200F
:1011700000E0022008707047440100202DE9F04192
:1011800002F086FA154C206803F074FD144D2868AF
:1011900003F070FD00F028F8124E40F6B83780B129
:1011A00001280CD102F054FA206803F063FD3846A0
:1011B00003F0FAFC286803F0CFFD0420F070BDE8CE
:1011C000F08102F027FA206803F054FD384603F05E
:1011D000EBFC286803F0C0FD0220EFE7340000209C
:1011E0005C00002044010020084900208968097A39
:1011F000012905D0022905D0032905D100F026B820
:1012000000F016B800F004B8704700004401002058
:10121000064810B58468206990E80E00A06901F0C6
:101220006BFB012800D0002010BD0000440100200D
:10123000054810B5806801698069096801F0F6FB0E
:10124000012800D0002010BD44010020054810B541
:10125000806801698069496801F032FC012800D08A
:10126000002010BD44010020F0B510490025104EAB
:101270000C78104FDFF840C0012C11D03378012BCF
:101280000ED03A78012A0BD09CF80000012807D034
:10129000022C05D0022B03D0022A01D0022804D14F
:1012A0000D7035703D708CF80050F0BD1E000020B0
:1012B0001F000020200000202100002070B502F057
:1012C0006BFB104C206803F0D5FC0F4D286803F031
:1012D000D1FC00F039F810B1012803D007E002F08A
:1012E0001FFB01E002F03AFB206803F0C3FC40F66C
:1012F000B83003F059FC286803F02EFD03490220A2
:10130000C87070BD340000205C0000204401002043
:10131000054810B581680B6988690ECB02F02CFE78
:10132000012800D0002010BD44010020054810B560
:10133000816888690969096802F058FE012800D0AF
:10134000002010BD44010020084810B58068007AD4
:10135000012802D0022807D102E0FFF7E7FF01E0F1
:10136000FFF7D6FF012800D0002010BD4401002067
:10137000FEE7000070B50E0005D020B10A2402F08F
:101380009DFD0C4D10E0002070BD2878012808D18B
:1013900031460948FFF7F3F818B100202870012002
:1013A00070BD322003F000FC2046641EE4B2ECD293
:1013B00070BD00001A000020D401002070B50D4659
:1013C0000646052402F078FB29463046FFF7D2FF97
:1013D000012807D00A2003F0E7FB641E14F0FF0485
:1013E000F0D1002070BD000070B50E0005D020B116
:1013F000012402F063FD094D0BE0002070BD287848
:10140000012806D131460648FFF7B9F808B1012096
:1014100070BD2046641EE4B2F1D270BD1A000020F7
:10142000D40100207047000010B5022000F05AF8E7
:1014300001280BD1052001F0E1FC0221044800F055
:101440000DFABDE81040022000F046B810BD0000C3
:101450000008014010B5042000F044F801280BD129
:10146000052001F0CBFC0421044800F0F7F9BDE8A9
:101470001040042000F030B810BD0000000801400A
:1014800010B5082000F02EF801280BD1052001F03E
:10149000B5FC0821044800F0E1F9BDE8104008203F
:1014A00000F01AB810BD00000008014010B510206F
:1014B00000F018F801280BD1052001F09FFC102145
:1014C000044800F0CBF9BDE81040102000F004B84B
:1014D00010BD00000008014001490860704700008D
:1014E00014040140064A014600201268044B0A40D9
:1014F00014331B680B4202D0002A00D00120704731
:101500000004014070B505464FF43026304600F027
:1015100059F8042811D1094C206940F002002061DB
:101520006561206940F040002061304600F04AF8D3
:10153000216941F6FD721140216170BD0020024019
:1015400008490420CA68D20701D001207047CA6840
:10155000520701D502207047C968C906FBD5032090
:1015600070470000002002400248016941F08001FC
:101570000161704700200240F0B506464FF4005765
:101580000D46384600F01EF804280CD1064C2069A0
:1015900040F0010020613580384600F013F82169E1
:1015A000BA1E11402161F0BD0020024003480249EB
:1015B00041600349416070472301674500200240B4
:1015C000AB89EFCD00B50346FFF7BAFF02E0FFF7A6
:1015D000B7FF5B1E012803D0002B00D1052000BD02
:1015E000002BF4D1FAE700F017B810B50446FFF766
:1015F000DDFF2046FFF786FFBDE81040FFF7B4BFD0
:1016000010B5002305E030F8134021F813405B1CAF
:101610009BB29342F7D310BD00B54FF400720C4952
:101620000C48FFF7EDFF0A480B4A018811600B4A8E
:10163000418811600A4A818811600A4A81791170D3
:10164000094A017A11700949807A087000BD0000CA
:10165000D409002000FC000884000020880000203D
:101660008C00002068000020690000206A00002033
:1016700010B50E4C2046FFF7B8FF0D480D49028803
:101680000D480A8002880D484A80A214008888808C
:101690000B480078C8800B48007808810A48007819
:1016A00048812046BDE8104000F010B800FC00085A
:1016B00084000020D4090020880000208C00002035
:1016C00068000020690000206A0000202DE9F04138
:1016D00015460E460746002407E036F8141007EBBF
:1016E000440000F006F8641CA4B2AC42F5D3BDE897
:1016F000F08170B50C460546FFF758FF2146284695
:10170000FFF73AFFBDE87040FFF72EBF08B5012193
:10171000082001F02BFA1C208DF803004FF44060E4
:10172000ADF8000003208DF802006946014800F082
:1017300003F808BD000C0140F0B5CC78002204F09D
:101740000F03E40601D58C7823430C784FF00F0C7F
:1017500014F0FF0F4FF0010E1BD005680E880EFA33
:1017600002F42640A64210D196000CFA06F725EAAC
:10177000070703FA06F5CE783D43282E02D0482EFF
:1017800002D002E0446100E00461521C082AE5D363
:1017900005600A88FF2A1CD94468002202F1080665
:1017A0000EFA06F50E882E40AE420ED196000CFAC7
:1017B00006F7BC4303FA06F7CE783C43282E00D147
:1017C0004561CE78482E00D10561521C082AE5D328
:1017D0004460F0BD10B500F021F8FFF797FF00F06E
:1017E00007F800F05DF8BDE8104000F07DB800009B
:1017F00008B50121042001F0B9F91E20ADF8000060
:1018000048208DF8030003208DF802006946024845
:10181000FFF792FF08BD00000008014008B5012154
:10182000082001F0A3F94FF40050ADF8000010209B
:101830008DF8030003208DF8020069460248FFF787
:101840007BFF00F003F808BD000C01404FF400518D
:10185000014800F023B80000000C014002460020BF
:1018600092680A4200D0012070470000022101481E
:10187000FFF7F4BF0008014004210148FFF7EEBF65
:101880000008014008210148FFF7E8BF00080140B7
:1018900010210148FFF7E2BF0008014001617047D5
:1018A00038B50121042001F061F918208DF80300FA
:1018B0004FF40070ADF800000A4D03248DF802408B
:1018C00069462846FFF738FF48218DF80310281590
:1018D000ADF800008DF8024069462846FFF72CFF5E
:1018E00038BD00000008014038B50121082001F092
:1018F0003DF918208DF803004FF48060ADF800002A
:101900000A4D03248DF8024069462846FFF714FF6C
:1019100048218DF80310E814ADF800008DF802405E
:1019200069462846FFF708FF38BD0000000C01405B
:101930000AB10161704741617047FEE770B500244C
:10194000FFF794FF002807D1052003F02DF9FFF7DA
:101950008DFF4EF6602540B170BD641CA4B201201D
:1019600003F022F9AC4200D32C46FFF77FFF00289A
:10197000F3D00448322C01D3022100E00121017090
:1019800070BD00001E00002070B50024FFF774FF3A
:10199000002807D1052003F007F9FFF76DFF4EF689
:1019A000602540B170BD641CA4B2012003F0FCF8B6
:1019B000AC4200D32C46FFF75FFF0028F3D0044869
:1019C000322C01D3022100E00121417070BD0000E2
:1019D0001E00002070B50024FFF754FF002807D137
:1019E000052003F0E1F8FFF74DFF4EF6602540B10A
:1019F00070BD641CA4B2012003F0D6F8AC4200D341
:101A00002C46FFF73FFF0028F3D00448322C01D3C7
:101A1000022100E00121817070BD00001E00002045
:101A200070B50024FFF734FF002807D1052003F02C
:101A3000BBF8FFF72DFF4EF6602540B170BD641C6A
:101A4000A4B2012003F0B0F8AC4200D32C46FFF75B
:101A50001FFF0028F3D00448322C01D3022100E0FC
:101A60000121C17070BD00001E000020094810B5A2
:101A7000006803F071F90848006803F06DF9074841
:101A8000006803F069F906480068BDE8104003F0FB
:101A900063B9000024000020280000202C00002052
:101AA00030000020094810B5006803F0E3F808484A
:101AB000006803F0DFF80748006803F0DBF8064829
:101AC0000068BDE8104003F0D5B8000024000020F5
:101AD000280000202C0000203000002008B5054818
:101AE000054B6A46006800900121D81C00F0BEFE3C
:101AF00008BD0000587700085E01002010B500F016
:101B00002DF800F057F80C48C17869B100238178AE
:101B100061B10022417859B10021007850B1002014
:101B2000BDE8104001F0DEBB0123F0E70122F1E740
:101B30000121F2E70120F3E75801002008B505482C
:101B4000054B6A46406800900121D81C00F08EFECB
:101B500008BD0000587700085E01002070B5124CE7
:101B60002079002810D1FFF781FF01F0BBFE0F4D57
:101B7000286803F07FF8642003F016F8FFF7AEFF43
:101B800018B101202071607170BD01F091FE2868CC
:101B900003F070F84FF47A7003F006F8FFF782FF55
:101BA00003490220087070BD580100203400002055
:101BB0004701002010B500F041F8BDE8104000F0EA
:101BC00001B8000070B51A4C207861780843A178FC
:101BD0000843E17808431ED1642002F0E5FF207835
:101BE00061780843A1780843E178084313D101F0F4
:101BF0001DFB104D286803F03DF800266671642037
:101C000002F0D2FFFFF79AFF30B1FFF74BFF0A490E
:101C100026710220087070BD01F04AFE286803F0AA
:101C200029F84FF47A7002F0BFFF0120607170BD97
:101C300058010020340000204701002010B5FFF7B4
:101C400015FE064C2070FFF717FE6070FFF71AFEB6
:101C5000A070FFF71DFEE07010BD000058010020CD
:101C600010B5214C88B06079002832D00020049053
:101C7000059006900790207868B300221BA104A865
:101C8000FEF750FB607840B3002219A105A8FEF7CB
:101C900049FBA07818B3002215A106A8FEF742FB65
:101CA000E078F0B1002212A107A8FEF73BFB04A8E0
:101CB000009005A8019006A8029007A803900A4882
:101CC00000236A460421093002F010F9642002F072
:101CD0006BFF08B010BD0122D0E70122D5E7012239
:101CE000DAE70122DFE70000580100202325640025
:101CF00025640000FEE700007FB51A4800F0FEF8FA
:101D0000184C0323803C04F14801E0630022A1F158
:101D10002C008DE80F00031F1A1F6A31124800F0D3
:101D20002DF90546A21C032302F1A5010F4800F07E
:101D300056F90646E21C032302F1B9010C4800F0F3
:101D40004EF903462946E06B00F008FA3146E06B95
:101D500000F004FAE06B04B01946BDE8704000F0F2
:101D6000FDB90000E4000020B76800087B680008A7
:101D7000F36800081CB50023CDE90031042100F010
:101D80006EF81CBD2DE9F04100F052F8224C04F130
:101D90000B03206303F167012048226C00F04EF82A
:101DA000804604F10C0303F17B011D48626C00F0D6
:101DB00045F8074604F1080303F14F011948626B27
:101DC00000F03CF8064604F1090303F170011648DF
:101DD000A26B00F033F8054604F10A0303F1760123
:101DE0001248E26B00F02AF803464146206B00F0EF
:101DF000ACF93946206B00F0A8F93146206B00F0B1
:101E0000A4F92946206B00F0A0F9206BBDE8F04151
:101E1000194600F09AB9000064000020976A000893
:101E2000D7700008276C0008B76D0008476F0008DE
:101E300000231A4619461846AFF300802DE9F041F9
:101E400007461C4615460E461820FEF73BFA0028AA
:101E500003D0C0E90254C0E90076BDE8F0812DE965
:101E6000F0470746DDE908941D46164688462420BB
:101E7000FEF728FA002808D0C0E9007480F808802E
:101E8000C0E9036580F814908461BDE8F08710B55F
:101E900000F00CF800F056F8FFF72EFF00F0B2F853
:101EA00000F036F8BDE81040FFF76CBF70B5104881
:101EB00000F024F80E4C0323573C2246606302F1E5
:101EC0009E010C4800F08BF80546621C032302F1CA
:101ED0008D01094800F083F803462946606B00F045
:101EE0003DF9606BBDE87040194600F037B900005D
:101EF000BB000020036800083F6800081CB50021F3
:101F0000CDE900100B460A460846FFF7A8FF1CBDA6
:101F100010B50948FFF7F2FF074C084A873C04F167
:101F20006B0160640648FFF725FF0146606CBDE861
:101F3000104000F013B90000EB000020FD1A00086B
:101F40005B6A00081CB50B48FFF7D8FF094C793CC9
:101F500004F11003A06301200090DA1E019002F149
:101F60009A01054800F0AEF80146A06BBDE81C40A0
:101F700000F0F4B8DD0000207B6800082DE9FC418A
:101F80000C4609A91F46064691E829009446009090
:101F9000089A3946604600F00DF8030008D0CDE9F4
:101FA0000054002202213046FFF759FFBDE8FC81B2
:101FB0000020FBE72DE9F04107461C4615460E467A
:101FC0001420DDF81880FEF77DF9002805D00760A1
:101FD000C0E901650473C0F81080BDE8F0817CB5EC
:101FE00006461C460D46104600F002F9030007D0D5
:101FF000002201213046CDE90045FFF730FF7CBDCE
:1020000000207CBD2DE9FF472848FFF777FF274CCC
:102010000023723C221D206402F192012448FFF744
:10202000DEFF814604F14D00A0F12501009100255D
:10203000CDE901050B1F1A1F9E311E480395FFF7BE
:102040009DFF0646621D002302F158011A48FFF762
:10205000C6FF8046A21D002302F15E011748FFF76C
:10206000BEFF04F12C03074603F12602009502F19E
:102070007F011348019500F025F803464946206C7E
:1020800000F06CF83146206C00F068F84146206C96
:1020900000F064F83946206C00F060F8206C04B061
:1020A0001946BDE8F04700F059B80000D6000020FE
:1020B0002F6900086B690008A7690008E369000838
:1020C0001F6A00082DE9FC411746DDE908520C465D
:1020D00006461946384600F00DF8030008D0CDE951
:1020E0000054002203213046FFF7B9FEBDE8FC8111
:1020F0000020FBE770B5064614460D460C20FEF79F
:10210000E1F8002802D0C0E90065047270BD00E06B
:10211000084641690029FBD1704701460020496902
:10212000002902D0401C40B2F9E7704700E00846A1
:10213000016A0029FBD1704701460020096A002985
:1021400002D0401C40B2F9E7704700B50A46FFF7DD
:10215000DEFF426110610020506100BD00B50A46FB
:10216000FFF7E4FF0262D0610020106200BD10B5ED
:10217000FFF78DFEBDE81040AFF300800D4A00B5BB
:10218000506BFFF7D9FF1072906BFFF7D5FF5072BD
:10219000D06BFFF7D1FF9072106CFFF7CDFFD072BC
:1021A000106BFFF7BAFFD071506CFFF7C5FF1073CB
:1021B00000BD00006400002010B109B1012205E05B
:1021C000002070479142FCD0521CD2B240690028D6
:1021D000F8D1704710B109B1012205E00020704725
:1021E0009142FCD0521CD2B2006A0028F8D170474C
:1021F00010B504460420FEF765F8002800D00460FE
:1022000010BD000010B502F029FE0149086010BDA4
:10221000900000200D4810B5006801280BD002285E
:102220000ED0032811D1812000F0E0FAFF20BDE894
:10223000104000F0DBBA812000F0D8FA0120F6E768
:10224000812000F0D3FA3220F1E710BD8400002095
:102250000548007820B1012804D1A72000F0C6BAB3
:10226000A620FBE7704700006800002005480078C2
:1022700020B1012804D1A02000F0B8BAA120FBE7CA
:1022800070470000690000200548007820B101284F
:1022900004D1C02000F0AABAC820FBE770470000B4
:1022A0006A00002010B5FFF7D3FFFFF7B3FFFFF779
:1022B000DDFFBDE81040FFF7E7BF704730B50F23E3
:1022C000C27801780125F2B1144A126801F1E021C7
:1022D00002F4E062C2F5E062120AC2F10404D340E3
:1022E0004278A24084781C401443220181F80024E3
:1022F000007800F01F018D404009800000F1E020CF
:10230000C0F8005130BD01F01F0085404809800031
:1023100000F1E020C0F8805130BD00000CED00E07D
:102320000249084302490860704700000000FA05AE
:102330000CED00E010B50021074C0A46002004EB2C
:10234000C1131A54401CC0B28028FAD3491CC9B228
:102350000829F3D310BD0000D40D0020F0B57F286C
:1023600028D83F2926D88418802C02D9C0F18002B1
:10237000D2B2CC18402C02D9C1F14003DBB20E4ED0
:102380004FF0010E871801EB030C11E001F007027A
:102390000EFA02F5CA08044606EBC21204E0135D09
:1023A000AB431355641CE4B2A742F8D8491CC9B228
:1023B0008C45EBD8F0BD0000D40D002010B57F286F
:1023C0000CD83F290AD8064ACB0802EBC31201F009
:1023D0000704135C0121A1400B43135410BD0000FE
:1023E000D40D00202DE9F0430746CD180798884604
:1023F000BE1868BB3C46A5F101090AE041462046EB
:10240000FFF7DCFF09F0FF012046FFF7D7FF641C50
:10241000E4B2A642F2D84446761E09E02146384688
:10242000FFF7CCFFF0B22146FFF7C8FF641CE4B20F
:10243000A542F3D8BDE8F083444605E0214638467E
:10244000FFF7BCFF641CE4B2A542F7D87F1CFFB2C3
:10245000BE42F1D8EEE7000038B500214FF47A72A1
:102460000020401C9042FCD3491C9142F8D301212A
:10247000082000F07BFB14208DF8030003208DF86A
:10248000020040200A4CADF8000069462046FFF7E4
:1024900053F98021ADF8001069462046FFF74CF94A
:1024A000012000F093F9012000F098F938BD0000F8
:1024B000000C014070B500240546802626FA04F081
:1024C000284000D0012000F089F9012000F07EF9B9
:1024D000002000F07BF9641CE4B2082CEED301204C
:1024E00000F074F9BDE87040002000F06FB910B53D
:1024F000012000F073F9012000F068F9002000F0DD
:102500006DF9BDE81040002000F060B910B5002062
:1025100000F064F9012000F059F9BDE810400120F5
:1025200000F05CB910B5FFF797FFAE2000F05EF940
:10253000D52000F05BF9802000F058F9A82000F0C9
:1025400055F93F2000F052F9D32000F04FF9002058
:1025500000F04CF9402000F049F9A12000F046F9C4
:10256000C82000F043F9DA2000F040F9122000F012
:102570003DF9812000F03AF9CF2000F037F9D92059
:1025800000F034F9F12000F031F9DB2000F02EF9F1
:10259000302000F02BF9A42000F028F9A62000F04C
:1025A00025F98D2000F022F9142000F01FF9AF204A
:1025B00000F01CF9FFF7BEFEBDE8104000F0ECB8DB
:1025C0000346012000E05843491EFCD2704710B575
:1025D0000C4640F0B00000F009F9102040EA141059
:1025E00000F004F904F00F00BDE8104000F0FEB860
:1025F00008B5082B0DD0062B0AD10A4B02EB42027C
:1026000003EB4202C03A00920823062200F00EF8C3
:1026100008BD054B03EB0212A2F5007210230092D5
:102620000822F3E71A6500082A5F00082DE9F04F39
:102630001C4690468A4683467F2840D8BAF13F0F11
:102640003DD851465846FFF789FE641EE017002129
:1026500004EB507001220AF0070702EBE00E2CE0B9
:10266000002026E00BEB00027F2A24D801EBDA04DD
:10267000072C24D8099E01FB08F90644114B19F8D0
:10268000065003EBC413BD4013F802C0641C4CEAAF
:10269000050C03F802C0072C09D81A4419F80640A3
:1026A00012F8803FC7F10805EC4023431370401C2B
:1026B000C0B24045D6D3491CC9B28E45D0DCBDE876
:1026C000F08F0000D40D00202DE9F0471D4617467D
:1026D0008A46804600244FF00A09089E14E0291B10
:1026E0000A20491EFFF76CFFB7FBF0F1B1FBF9F2CE
:1026F00009FB121204FB0680C0B233465146303249
:10270000FFF776FF641CE4B2AC42E8D3BDE8F08783
:102710002DE9F0471E46089F15008A4680463B4635
:1027200003D42B22FFF764FF03E02D22FFF760FFA5
:102730006D4200244FF00A0914E0311B0A20491EA3
:10274000FFF73EFFB5FBF0F1B1FBF9F209FB121206
:10275000641C04FB0780C0B23B4651463032FFF791
:1027600047FFE4B2B442E8D3BDE8F0872DE9F04179
:102770001D46164688460746002408E004FB0570FF
:10278000C0B22B464146FFF733FF641CE4B2325D12
:10279000002AF3D1BDE8F08170B502F0BFF9FFF770
:1027A00081FD094D002400212046FFF710FF05EBB5
:1027B000C410802100F02BF8641CE4B2082CF2D382
:1027C000BDE8704002F0B8B9D40D002002464021A7
:1027D0000148FFF7ADB80000000C0140024680211F
:1027E0000148FFF7A5B80000000C014010B50446F1
:1027F000FFF77DFE7820FFF75DFE0020FFF75AFE11
:102800002046FFF757FEBDE81040FFF77FBE70B5CA
:102810000D460646FFF76BFE7820FFF74BFE402083
:10282000FFF748FE002404E0305DFFF743FE641C20
:10283000E4B2AC42F8D3BDE87040FFF767BE0000D9
:1028400070B514460D4610B107A1884201D111465A
:1028500004E001462846FDF7A4FE21462846BDE8CF
:102860007040FDF79EBE0000000000002DE9F04121
:1028700090B0884604461E46174640216846FDF73C
:10288000C6FE224669461848FFF7DAFF17A26946D6
:102890000020FFF7D5FF0024A8F1010507E057F855
:1028A000240013A26946FFF7CBFF641CE4B2AC42DC
:1028B000F5DB07EB88000FA250F8040C6946FFF720
:1028C000BFFF66B131466846FEF778FD012800D0AB
:1028D0000020002E00D1022010B0BDE8F08105A13B
:1028E0006846FEF781FDF1E73E0100202334000039
:1028F0002300000000000000F0B591B00E4607462E
:102900001C461546202108A8FDF781FE20216846B7
:10291000FDF77DFE3A4669460E48FFF791FF0EA28D
:1029200069460020FFF78CFF0CA208A96846FFF754
:1029300087FF08A96846FEF741FD012807D1234615
:102940002A463146064800F00DF8012800D0002044
:1029500011B0F0BD3E010020233300002300000031
:10296000D40100202DE9F0470E4690B09A469146DA
:102970002321FDF7FAFD002848D02321401CFDF754
:10298000F4FD002842D02321401CFDF7EEFD002875
:102990003CD0401C05462321FDF7E7FD040034D060
:1029A000671B402F31D23A4629466846FDF756FE4E
:1029B0000025E84640460DF80750FDF7C9FD306098
:1029C00040216846FDF723FE601C06462321FDF7E3
:1029D000CCFD040019D0A71B402F16D23A46314631
:1029E0006846FDF73BFE464608F807506846FDF787
:1029F000AFFDC9F80000601C04462321FDF7B5FDBA
:102A0000002803D0071B402F03D3002010B0BDE8DF
:102A1000F0873A4621466846FDF720FEF5556846A0
:102A2000FDF796FDCAF800000120EFE730B591B040
:102A30000C460546202108A8FDF7E9FD202168463F
:102A4000FDF7E5FD2A4669460D48FFF7F9FE0DA2A0
:102A500069460020FFF7F4FE0BA208A96846FFF7BD
:102A6000EFFE08A96846FEF7A9FC012802D0002065
:102A700011B030BD054800F00BF820700120F7E7D9
:102A80003E0100202331000023000000D40100207B
:102A900010B52321FDF769FD00280FD02321401C2C
:102AA000FDF763FD002809D02321401CFDF75DFDE3
:102AB000002803D0401CFDF74BFDC0B210BD000044
:102AC00030B591B00C460546202108A8FDF79FFDC2
:102AD00020216846FDF79BFD2A4669460D48FFF711
:102AE000AFFE0DA269460020FFF7AAFE0BA208A9BF
:102AF0006846FFF7A5FE08A96846FEF75FFC0128B7
:102B000002D0002011B030BD054800F00BF8206065
:102B10000120F7E73E0100202332000023000000DF
:102B2000D401002010B52321FDF71FFD002810D08F
:102B30002321401CFDF719FD00280AD02321401C49
:102B4000FDF713FD002804D0BDE81040401CFDF740
:102B5000FFBC10BD044A0029D16901D0014300E047
:102B60008143D1617047000000100240044A0029EF
:102B7000916901D0014300E08143916170470000F9
:102B80000010024030B5204A5168204B11F00C0172
:102B900003D0042901D0082901D0036012E0516854
:102BA000536801F470114FF0020413F4803F04EBFA
:102BB000914102D053689B0301D5154B00E0134BA4
:102BC0005943016051680F2303EA1111114B5C5CFA
:102BD0000168E14041605468072505EA14241C5D42
:102BE00021FA04F48460546805EAD4241B5DD940BA
:102BF000C1605268032303EA9232064B1B1F9A5CA2
:102C0000B1FBF2F1016130BD0010024000127A0008
:102C100000093D00040000200CB500222648009267
:102C20000192016841F4803101604FF4A0630168B2
:102C300001F4003101910099491C0091019911B9E9
:102C400000999942F3D10168890333D5012101919B
:102C50001A490A6842F010020A600A6822F0030268
:102C60000A600A6842F002020A60416841604168F5
:102C70004160416841F480614160416821F47C1108
:102C80004160416841F4E8114160016841F08071A0
:102C9000016001688901FCD5416821F003014160B0
:102CA000416841F0020141604168C1F3810102299C
:102CB000FAD10CBD01920CBD001002400020024070
:102CC00010B5502080F31188BFF34F8FBFF36F8F83
:102CD00002F010F918B104494FF08050086000204C
:102CE00080F3118810BD000004ED00E00F4810B51E
:102CF000016841F00101016041680D4A11404160E5
:102D000001680C4A11400160016821F480210160D2
:102D1000416821F4FE0141604FF41F018160FFF71B
:102D20007BFF05494FF00060086010BD00100240B5
:102D30000000FFF8FFFFF6FE08ED00E0FEF7FEFDE5
:102D4000FCE7FEE7FEE7FEE7FEF78EF8FEF788FFFA
:102D5000FAE741F28834FFF755FAFEF789FC20467E
:102D600001F022FFF7E7002001F0F6FFFEF77CFA02
:102D7000FCE7FEF709FEFCE7FEF72CFEFCE7FEF79A
:102D80004FFEFCE7FFF7CEFBFFF706FD002001F04A
:102D9000E3FFF9E700F05CFE034CFDF717FF206945
:102DA00001F068FFF9E700002400002000F0E6FED3
:102DB00000F074FF642001F0F7FEF7E7FEE7FEE79E
:102DC0001CB54FF44070FFF7ABFA07490120CDE97D
:102DD00000010023802205A1074802F05DF8BDE84C
:102DE0001C4001F091BF0000600000205461736B33
:102DF0005F537461727400003130000870B504468E
:102E00004FF6FF70844213D201218D07284600F04F
:102E100097F8284600F09EF8A042FAD300212846F1
:102E200000F08EF82846BDE87040002100F0AFB8F1
:102E300070BD3EB501210846FFF78CFE0020ADF8BD
:102E400006004FF6FF71ADF80200ADF8041048F629
:102E50009F41ADF800108DF808004FF0804469469E
:102E6000204600F097F80021204600F090F800215D
:102E7000204600F065F83EBD70B5104D0121284692
:102E800000F06AF8012818D10D4C6088401C81B20E
:102E90006180FA290BD3012020700021284600F020
:102EA0004FF80021284600F072F800206080284684
:102EB000BDE87040012100F040B870BD0004004042
:102EC000140000201FB501210220FFF743FE00205F
:102ED000ADF8060040F2E731ADF80200ADF804109D
:102EE0002321134CADF800108DF8080069462046E8
:102EF00000F050F80121204600F01CF80122114694
:102F0000204600F035F84FF4A060FFF709FA1D21C4
:102F10008DF80C1001218DF80F108DF80D1003A8FD
:102F2000FFF7CCF90021204600F00AF81FBD000091
:102F300000040040C94301827047C94301827047C1
:102F40000029018802D041F0010101E021F00101D6
:102F500001807047808C704702460020138A928956
:102F60000B4202EA010202D0002A00D00120704781
:102F7000002A828901D00A4300E08A438281704797
:102F800010B5FFF756FFBDE81040FFF79BBF8184E7
:102F90007047000030B502881B4C1C4DA0420DD07C
:102FA000A8420BD0B0F1804F08D0194B984205D001
:102FB000184B984202D0184B984203D122F070036C
:102FC0004A881A43154B984206D0154B984203D0B5
:102FD00022F44073CA881A4302808A8882850A884C
:102FE0000285A0420AD0A84208D00E4A904205D0DD
:102FF0000D4A904202D00D4A904201D1097A0186D1
:103000000121818230BD0000002C014000340140CC
:103010000004004000080040000C00400010004088
:1030200000140040004001400044014000480140BD
:103030001CB501F073FD4F480124CDE90040002389
:1030400080224DA14E4801F027FF4A480023001D71
:10305000CDE9004080224BA14C4801F01DFF4548BE
:1030600000230830CDE90040802249A14A4801F000
:1030700013FF404800230C30CDE90040802247A1D7
:10308000484801F009FF3B4902201031CDE9000119
:103090000023802244A1464801F0FEFE354800236B
:1030A0001430CDE90040802242A1444801F0F4FEF2
:1030B000304800231830CDE90040802240A142482A
:1030C00001F0EAFE2B4800231C30CDE900408022AD
:1030D0003EA1404801F0E0FE264800232030CDE923
:1030E000004080223CA13E4801F0D6FE214800234A
:1030F0002430CDE9004080223AA13C4801F0CCFECA
:103100001C4800232830CDE90040802238A13A48ED
:1031100001F0C2FE174800232C30CDE90040802288
:1031200036A1384801F0B8FE124800233030CDE90E
:103130000040802234A1364801F0AEFE0D48002345
:103140003430CDE90040802232A1344801F0A4FEA1
:10315000084800233830CDE90040802230A13248B1
:1031600001F09AFE002001F037FDBDE81C4001F09F
:10317000E3BC0000240000205441534B3100000008
:103180003D2D00085441534B32000000732D0008C0
:103190005441534B33000000792D00085441534BE8
:1031A000340000007F2D00085441534B35000000CF
:1031B000852D00085441534B36000000952D000822
:1031C0005441534B37000000AD2D00085441534B80
:1031D00038000000BD2D00085441534B3900000059
:1031E000BF2D00085441534B31300000432D0008DF
:1031F0005441534B31310000452D00085441534B8D
:1032000031320000472D00085441534B3133000048
:10321000492D00085441534B31340000532D000810
:103220005441534B31350000672D000808B5FFF7B6
:1032300081F80848282300901A4603212D20FFF723
:10324000F5F901B00623322103A221205DF804EB39
:10325000FFF78CBAB575000841626F7274696E67CA
:103260002E2E2E00F8B51D4E05460C4696F9000090
:10327000854232DCFFF75EF829462046FEF79CFFC8
:1032800004464268082300210120FFF76FFA2068F6
:1032900000902823502214210120FFF7C7F90020B5
:1032A00000902823502214210120FFF79BF80824C6
:1032B00002232A460A2161200094FFF705FA06231B
:1032C00007A21C216420FFF751FA0094022396F90B
:1032D000002024216120FFF7F7F9F8BD6B000020E2
:1032E0002F0000002DE9F8431D4616460F46804684
:1032F000FFF720F80024012114237E2208460094C1
:10330000FFF770F8062325A207211420FFF72EFAF5
:1033100029231E22162101200094FFF763F82022A2
:103320002923162110460094FFF75CF829231F2259
:10333000162141200094FFF755F829231E2216215B
:1033400061200094FFF74EF81848142300901A46A5
:1033500021210620FFF76AF91548142300901A4628
:1033600021212620FFF762F91248142300901A4603
:1033700021214620FFF75AF90F48142300901A46DE
:1033800021216620FFF752F901B02B46324639461B
:103390004046BDE8F04300F011B800004D616E7585
:1033A000616C20436F6E74726F6C0000C57400080E
:1033B000017500083D75000879750008F8B5274CBF
:1033C0001D4616460F4610B101280ED106E0062311
:1033D0001A4638210220FEF7C1FF06E006231A46EE
:1033E000382101200094FFF721F917B1012F0ED1E8
:1033F00006E006231A4638212120FEF7AFFF06E03B
:1034000006231A46382120200094FFF70FF916B141
:10341000012E0ED106E006231A4638214220FEF77F
:103420009DFF06E006231A46382141200094FFF74D
:10343000FDF84DB1012D06D106231A463821612031
:103440000094FFF7F3F8F8BD01B00623BDE8F040A3
:1034500038211A466220FEF781BF0000BF740008C1
:10346000F8B516460F460446FEF764FF0823002110
:1034700001207A68FFF77AF9062363A20021602011
:10348000FFF774F9062360A200217820FFF76EF998
:10349000082000900223224600216820FFF714F93B
:1034A00000250C231A4616216E200095FEF79AFF80
:1034B0000C231A462B216E200095FEF793FF304611
:1034C000012684424FEAC4702DD1002866D02146DF
:1034D0003846FEF77FFE04460068142300901A4623
:1034E00012210120FFF7A2F814231A46122101200D
:1034F0000095FEF777FF0823142117206268FFF775
:1035000035F90C231A4616216E200096FEF76AFF45
:103510000C231A462B216E20FEF720FF06232D21B7
:103520003AA2302035E0C8B321463846FEF752FEB5
:1035300004460068142300901A4612210120FFF768
:1035400075F814231A46122101200095FEF74AFF50
:103550000823142117206268FFF708F90C231A4684
:1035600016216E200096FEF73DFF246A14231A46AA
:103570002068009028210120FFF758F814231A46EC
:10358000282101200095FEF72DFF082362682A21DB
:10359000172001B0BDE8F040FFF7E8B821463846F3
:1035A000FEF718FE04460068142300901A462821EE
:1035B0000120FFF73BF814231A462821012000952B
:1035C000FEF710FF08232A2117206268FFF7CEF8C4
:1035D000E4690C231A462B216E200096FEF702FFA9
:1035E0002068142300901A4612210120FFF71EF8CC
:1035F00014231A46122101200095FEF7F3FE08233A
:1036000014216268C4E700002D0000002D456E649F
:103610002D00000008B5FEF78DFE08482823009015
:103620001A4603212D20FFF701F801B006233221AD
:1036300003A214205DF804EBFFF798B8F7730008B5
:1036400052657175657374204661696C656421000B
:1036500008B5FEF76FFE0848282300901A4603219C
:103660002D20FEF7E3FF01B00623322103A20F2035
:103670005DF804EBFFF77AB82F7300085265717597
:1036800065737420537563636573732100000000D4
:1036900008B5FEF74FFE0848282300901A4603217C
:1036A0002D20FEF7C3FF01B00623322103A20A201A
:1036B0005DF804EBFFF75AB8677200085265717540
:1036C000657374696E6720446174612E2E2E00004C
:1036D0002DE9F84F0F4682461646116818683A6879
:1036E000091A141A1D46DDF828B0084602F042FBFC
:1036F0008046204602F03EFB414602F079FA02F095
:103700004BFA0022454B02F01DF801F09BFF00F040
:10371000FF09FEF70FFE4FF0000802213D237D2236
:103720000846CDF80080FEF75DFE062352460021D4
:103730000F20FFF71BF806235A4638210F20FFF70A
:1037400015F83868002805DB3068002802DB286897
:10375000002801DA122410E00A2423466E222A21CE
:103760002046CDF80080FEF73DFE01200A230090A0
:103770004A462A211846FEF735FE062328A221468E
:103780002D20FEF7F3FF04F10A018A46062326A244
:103790002D20FEF7EBFF04F114018946062324A235
:1037A0002D20FEF7E3FF386800F0BEFC4FF006085E
:1037B000C3B2CDF8008021464B203A68FEF7A8FF3F
:1037C000306800F0B1FCC3B2CDF8008051464B2008
:1037D0003268FEF79DFF286800F0A6FCC3B2CDF862
:1037E000008049464B202A68FEF792FF0B9801287B
:1037F0000CD002280ED003280ED1494606230EA273
:1038000001B01E20BDE8F04FFEF7B0BF06230AA2AC
:103810002146F5E75146F1E7BDE8F88F00805B40AF
:103820006E6F773A000000006D61783A000000008A
:103830006D696E693A0000002D3E0000F8B50D4636
:103840000646FEF777FD002402213D237D2208462F
:103850000094FEF7C7FD0623324600210F20FEF735
:1038600085FF2878012811D000281BD12823462263
:103870000F212C200094FEF7B5FD082319210AA280
:10388000432001B0BDE8F040FEF770BF0F212823B0
:103890001E2208460094FEF7A5FD0823192103A265
:1038A0001720EEE7F8BD00004F4646004F4E0000DF
:1038B00008B5FEF73FFD0848282300901A4603216B
:1038C0002D20FEF7B3FE01B00623322103A22B20E8
:1038D0005DF804EBFEF74ABFF77300084661696CB8
:1038E0006564210008B5FEF725FD084828230090EF
:1038F0001A4603212D20FEF799FE01B0062332213E
:1039000003A219205DF804EBFEF730BF7D760008B6
:103910004265204F70656E696E672E2E2E00000086
:1039200008B5FEF707FD0848282300901A46032132
:103930002D20FEF77BFE01B00623322103A21420C6
:103940005DF804EBFEF712BFF77300085570646171
:103950007465204661696C656421000008B5FEF756
:10396000E9FC0848282300901A4603212D20FEF781
:103970005DFE01B00623322103A20F205DF804EBA7
:10398000FEF7F4BE2F730008557064617465205310
:10399000756363657373210008B5FEF7CBFC0848B7
:1039A000282300901A4603212D20FEF73FFE01B088
:1039B0000623322103A20F205DF804EBFEF7D6BEEA
:1039C0006772000855706C6F6164696E67204461AE
:1039D00074612E2E2E000000F8B514460D460646E2
:1039E000FEF7A8FC0022009202213D237D2208461A
:1039F000FEF7F8FC0623324600210F20FEF7B6FE44
:103A000006230DA211210A20FEF7B0FE06230EA206
:103A100026210A20FEF7AAFE06232A46112153205A
:103A2000FEF7A4FE082000900523202137202268FD
:103A3000FEF76EFEF8BD0000646573637269707412
:103A4000696F6E3A0000000076616C75653A00009F
:103A500008B50F48232300901A4605212E20FEF7B3
:103A6000E5FD06230BA22D211720FEF77FFE06237E
:103A70000CA236211E20FEF779FE0E48006801F0E8
:103A8000F9F8BDE808404FF47A7001F08DB80000F5
:103A90005467000852656D6F746520436F6E7472D1
:103AA0006F6C00002D4279206E6169686170692D2C
:103AB00000000000340000204FF480610148FCF752
:103AC00084BD0000D401002070B50C4D40F2255497
:103AD0002146284600F02AF901280DD1281D018829
:103AE0000848074B02789954521C02702146284618
:103AF000BDE8704000F003B970BD0000003801401F
:103B0000D40100201800002010B586B0FFF7D4FFC4
:103B100001218803FFF72AF84FF4E13000900020DC
:103B20000C21ADF80A10ADF80600134CADF80C00EE
:103B3000ADF80800ADF804006946204600F02EF903
:103B40002021204600F0D8F8012240F225512046DD
:103B500000F00BF925218DF8101001218DF81310BC
:103B600002218DF8111004A8FEF7A8FB01212046C0
:103B700000F0CBF806B010BD003801400749002224
:103B8000087828B14B78984204D04870022003E0AE
:103B90008A7070470A7001208870704718000020F2
:103BA00010B5064C0146204600F084F980212046DD
:103BB00000F0B5F80028F9D010BD00000038014031
:103BC00070B50546002403E0FFF7EAFF641CA4B2C9
:103BD000285D0028F8D170BD4FF480610148FCF7E2
:103BE000F4BC0000D405002070B50C4D40F2255403
:103BF0002146284600F09AF801280DD1281D018899
:103C00000848074BC2789954521CC2702146284676
:103C1000BDE8704000F073B870BD0000004800407F
:103C2000D40500201800002010B586B0FFF7D4FF9F
:103C300001218804FEF78EFF4FF4E1300090002050
:103C40000C21ADF80A10ADF80600134CADF80C00CD
:103C5000ADF80800ADF804006946204600F09EF873
:103C60002021204600F048F8012240F2255120464C
:103C700000F07BF827218DF8101001218DF813102A
:103C800002218DF8111004A8FEF718FB012120462F
:103C900000F03BF806B010BD004800400749002284
:103CA000C87828B10B79984204D00871022003E04B
:103CB0004A717047CA70012048717047180000208F
:103CC00010B5064C0146204600F0F4F8802120464D
:103CD00000F025F80028F9D010BD00000048004091
:103CE00070B50546002403E0FFF7EAFF641CA4B2A8
:103CF000285D0028F8D170BDC943018070470A0AC9
:103D000001219140C943018070470029818902D077
:103D100041F4005101E021F40051818170470246D5
:103D2000002012880A4200D00120704770B501F0CF
:103D30001F0501260024C1F3421306FA05F2012BE8
:103D40000FD0022B0FD0838A4FEA11210088134233
:103D500006FA01F600EA060001D000B1012420466F
:103D600070BD8389F0E7038AEEE710B5C1F3421313
:103D700001F01F040121A140012B07D0022B07D025
:103D80001430002A026805D00A4304E00C30F8E73A
:103D90001030F6E78A43026010BD000030B50446DB
:103DA000008A85B00D464CF6FF710840E988014352
:103DB0002182A0894EF6F3110840A9882A8911436F
:103DC0006A8902431143A181A08A4FF6FF4108404E
:103DD000A9890143A1826846FEF7D4FE19488442AE
:103DE00001D1039800E00298A189090400EBC00109
:103DF00001EB0010296801D5490000E08900B0FB03
:103E0000F1F06422B0FBF2F109010B096FF0180523
:103E10006B4300EB8300A3891D044FF0320306D5EA
:103E200003EBC000B0FBF2F000F0070005E003EB8D
:103E30000010B0FBF2F000F00F000843208105B045
:103E400030BD00000038014010B5FFF75DFEFFF700
:103E5000EBFE04A0FFF744FFBDE810400BA0FFF706
:103E6000AFBE0000410A436F6D70757465723A20F1
:103E700052656D6F746520436F6E74726F6C204273
:103E800079204E6169686170690A0000410A5769CA
:103E900072656C6573733A2052656D6F746520436B
:103EA0006F6E74726F6C204279204E616968617028
:103EB000690A0000C1F3080181807047FFF780BEE6
:103EC00070B514460D4610B107A1884201D11146C4
:103ED00004E001462846FCF764FB21462846BDE87D
:103EE0007040FCF75EBB0000000000002DE9F041CF
:103EF00090B0884604461E46174640216846FCF7A7
:103F000086FB224669461848FFF7DAFF17A2694682
:103F10000020FFF7D5FF0024A8F1010507E057F8BE
:103F2000240013A26946FFF7CBFF641CE4B2AC4245
:103F3000F5DB07EB88000FA250F8040C6946FFF789
:103F4000BFFF66B131466846FDF738FA012800D058
:103F50000020002E00D1022010B0BDE8F08105A1A4
:103F60006846FDF741FAF1E75001002023340000D4
:103F70002300000000000000F0B5074615480E467B
:103F80009BB0D0E90210CDE919101C46154640211E
:103F900001A8FCF73CFB202111A8FCF738FB2068A6
:103FA00000902B680CA111A83268FCF7BBF93A46C7
:103FB00001A90D48FFF784FF11AA01A90020FFF70E
:103FC0007FFF19A901A8FDF7F9F9012800D0002009
:103FD0001BB0F0BD487700082333232564232564F4
:103FE00023256423000000005001002030B5134A4F
:103FF00095B00D460446D2E90001CDE912014021F9
:104000006846FCF704FB0022109211922A780CA15A
:1040100010A8FCF787F9224669460B48FFF750FFC6
:1040200010AA69460020FFF74BFF12A96846FDF76A
:10403000C5F9012800D0002015B030BD4877000830
:10404000233123256400000050010020FEE72DE904
:10405000F0414F1E00EBC7010446D1E900011546AF
:104060001E4637F006020DD02A46334601F06AFBA1
:104070007F1E04EBC703D3E9002301F063F837F098
:104080000602F1D1022F25D0042F13D0062F18BF1E
:10409000BDE8F0812A46334601F054FBD4E90A23F7
:1040A00001F050F82A46334601F04CFBD4E90823CE
:1040B00001F048F82A46334601F044FBD4E90623D0
:1040C00001F040F82A46334601F03CFBD4E90423D2
:1040D00001F038F82A46334601F034FBD4E90223D4
:1040E00001F030F82A46334601F02CFBD4E90023D6
:1040F000BDE8F04101F026B8002213461046014900
:1041000001F0DCB80000F03F012201F0C8BE00223F
:1041100013461046114601F0D1B830380A2801D2B2
:10412000012070470020704710B500280CD001DA3C
:10413000C0F1000001F0B3FA00F024FA00F006F834
:1041400001F050FA401C10BD012010BD2DE9F041D6
:10415000C1F30A52A2F2FF362F4A304B0D460446F5
:10416000142E2FDA002E12DA00F0ECFF0022134694
:1041700001F0E6FB4CD2002DA4BF0024254647DA0F
:1041800025F00040204318BF254D41D018E0DFF84E
:1041900094C02CFA06F705EA070C5CEA040C08BF89
:1041A000BDE8F08100F0CEFF0022134601F0C8FB0D
:1041B0002ED2002D03DA4FF48010F0400544BD43A9
:1041C000002425E0332EC8BFBDE8F081A6F1140C11
:1041D0004FF0FF3727FA0CF73C4208BFBDE8F081EB
:1041E00001F0E4FB0022134601F0AAFB10D2002DDF
:1041F0000DDA142E08BF6D1C09D0C6F13400012160
:1042000001FA00F02044A04238BF6D1C0446BC43B4
:1042100029462046BDE8F0819C7500883CE4377E45
:104220000000F0BFFFFF0F002DE9F04DC84A002449
:1042300090B0914205DA21F00043934201D805D1B4
:1042400020B110B0BDE8F04DFFF75EBFB1F5801FA3
:104250001BDA53EA000209D0002911DA0120FCF729
:10426000EFFA10B0BDE8F04DFFF751BF0220FCF7A8
:10427000E7FAFFF741FF10B081F00041BDE8F08D93
:104280006FF03504362201F00AFE04EB2152C1F32F
:104290001308B049A2F2FF33414401F4801282F0C6
:1042A0007F6103EB225281F04051009241EA080104
:1042B0000022A94B01F086FB044608F10200A74E3C
:1042C000C0F313000D467E44032867D2D6E90023CD
:1042D000204601F04BF91ED10098002802BFD6E914
:1042E000000110B0BDE8F08D01F0D9F907460C4689
:1042F0009B4A9C4B01F026FA06460D469A4A9B4B78
:104300003846214601F01EFA10B032462B46BDE871
:10431000F04D00F017BF4FF05532954B204629461F
:1043200001F010FA0022934B01F040FB06460F46C5
:1043300022462B461046194601F004FA32463B4607
:1043400001F000FA064600980F46F0B101F0A7F917
:1043500080468A46824A834B01F0F4F932463B4656
:1043600001F024FB22462B4601F02CFB05460C46AF
:104370007D4A7E4B4046514601F0E4F910B02A4692
:104380002346BDE8F04D01F01DBB0B4610B0324690
:1043900020462946BDE8F04D01F014BB00224FF045
:1043A0008043204600F0CEFE02460B4620462946BA
:1043B00000F084FF06460F46009801F070F9CDE941
:1043C000040132463B461046394601F0BBF90C90D9
:1043D00069480C9A4044019009910B46104601F03F
:1043E000B1F98246024665488B46C8F151080B4632
:1043F00008F5D72803217844FFF729FE52465B468B
:1044000001F0A0F90A905E480D9152465B460421E6
:104410007844FFF71CFE099B0C9A01F093F984463F
:1044200001980D9B40EA080860460A9A00F08AFE4F
:1044300083460891B8F1000F4EDD4FF0FF32204661
:10444000294601F02CFD22462B4601F07BF98046DF
:1044500000988A4660B3DDE90401414A414B01F00E
:1044600071F9099100905A4640465146089B00F068
:1044700069FE32463B4601F065F9099B009A00F05F
:1044800061FE4246534601F091FA22462B4601F066
:1044900099FA04460D46DDE90401334A334B01F035
:1044A00051F910B022462B46BDE8F04D01F08ABA12
:1044B0005A464046089B00F045FE32463B4601F016
:1044C00041F94246534601F071FA10B022462B469C
:1044D000BDE8F04D01F06ABA009840B3DDE904018F
:1044E0001F4A204B01F02EF980468A465A46204644
:1044F0002946089B01F066FA32463B4601F022F954
:104500004246534601F05EFA22462B4601F05AFA23
:1045100004460D46DDE90401134A144B01F012F97B
:1045200010B022462B46BDE8F04D01F04BBA0B46C9
:104530005A462046294601F045FA32463B4601F0EC
:1045400001F910B022462B46BDE8F04D01F02EBA1D
:104550000000F07F645F09000000F03FE6340000D7
:10456000763C7935EF39EA3D0000E0FE422EE63F29
:104570005555D53F0000E03F86EBF9FF7E33000044
:104580007C3300002DE9F04104463048002581428B
:1045900005DA21F00042824201D805D124B120463B
:1045A000BDE8F041FFF7B0BDB1F5801F1BDA52EA5C
:1045B000040008D000290FDA0120FCF741F9BDE81A
:1045C000F041FFF7A4BD0220FCF73AF9FFF794FD94
:1045D00081F00041BDE8F0816FF0350536222046BC
:1045E00001F05DFC044605EB2150A0F2FF32D00F34
:1045F00040F2FF331B1A0D4663F31F55104401F0C0
:104600004EF806460F4629462046FFF70DFE104A93
:10461000104B01F097F804460D460F4A0F4B3046F9
:10462000394601F08FF822462B4600F08BFD0546F7
:104630000C460B4A0B4B3046394601F083F82A46AC
:104640002346BDE8F04100F07DBD00000000F07F92
:104650000EE526157BCBDB3F362BF111F3FE593DE2
:1046600000609F501344D33F10B5FDF7B3F8FFF738
:10467000EBFBFEF785FCFCF7B6FFFDF778FDFCF7DA
:1046800049FBFEF79DFB002010BD00002DE9F04125
:104690001E4D0F460446EE682868001D00F0F8F92C
:1046A00038B9286890F82C10012088402969814386
:1046B0002961601C15D1A7B115492A684868906026
:1046C0002B688268DA602A688368121D5A602A683B
:1046D000121D8260286841610868401C0860BDE8BE
:1046E000F08128683444B4424460296805D2E86BFC
:1046F000BDE8F041091D00F0ECB9A86B091D00F000
:10470000E8F9A86A8442EAD2AC62E8E774010020C2
:10471000881200202DE9F041044600F0FFF9364EE2
:10472000B068401CB0603068344F10B1706940B35D
:104730002DE03460B068012829D1002505EB850003
:1047400007EB800000F0B7F96D1C052DF6D32B4860
:10475000643000F0B0F92948783000F0ACF927480F
:104760008C3000F0A8F92548A03000F0A4F92348C7
:10477000B43000F0A0F921486430B0631430F06325
:1047800005E03068E16AC06A884200D83460706A27
:104790000121401C7062E06A32698140114331613D
:1047A00000EB800007EB80004068A0608168E1605A
:1047B0008268211D51608160E06A00EB800007EB98
:1047C0008001616157F82010491C47F8201000F063
:1047D000B3F9706900280CD03068E16AC06A884279
:1047E00007D207494FF080500860BFF34F8FBFF3E7
:1047F0006F8FBDE8F081000074010020D41100200B
:1048000004ED00E010B50446006B00F09FF920466F
:10481000BDE8104000F09AB90E484FF4205142070D
:1048200006D0C01D0B4920F00700411AC1F52051E8
:10483000094B00220144C3E900020839143B21F06E
:10484000070119604A600A600A1AC0E900129A60FA
:104850005A6070479C120020C8010020134E144D6E
:10486000A6F1A0074FF08058DFF8489011E000F063
:1048700055F9F068C468201D00F00AF9A868401EC8
:10488000A8606868401E686000F056F92046FFF78F
:10489000B9FF68680028EAD138680128F9D9C9F851
:1048A0000080BFF34F8FBFF36F8FF2E774120020C9
:1048B0007401002004ED00E02DE9F0470D46DDE92C
:1048C00009841746824691009946089EA522206BCE
:1048D000FBF773FE6FF00301206B01EB87010844C7
:1048E00020F0070765B100202218295C82F83410F7
:1048F000295C11B1401C1028F6D3002084F8430035
:10490000052E00D30426201DE66200F0DFF804F136
:10491000180000F0DBF82461C6F105006462A061B4
:104920004A465146384600F0A1F82060B8F1000F21
:1049300001D0C8F80040BDE8F087000030B511494B
:1049400000E011460A688242FBD34B685C1884423F
:1049500003D1406818444860084643681C189442D4
:1049600009D1084C143C2468A24209D052681A4468
:1049700042600A6812680260814200D0086030BD5F
:104980000460F9E7C80100200548816B096821B17E
:10499000816BC9680968816270474FF0FF31FAE79F
:1049A00074010020502080F31188BFF34F8FBFF3B4
:1049B0006F8FFEE7064B426900219A4206D1806A5A
:1049C000A3F12802904201D000B9012108467047A6
:1049D0008812002070B50446002500F015FA224E1A
:1049E000306808B9FFF718FFCCB304F00700C0F136
:1049F0001000C1438C4232D8211800292FDD706885
:104A000081422CD8184A14321046046801E022462C
:104A100004466068884202D220680028F7D13068D6
:104A200084421CD015682068106060680835421AFE
:104A3000102A04D9601842606160FFF77FFF616847
:104A40007068401A7060B268904200D2B06041F065
:104A50000040606000202060F068401CF06000F0C2
:104A6000D1FA284670BD0000B401002010B5031F24
:104A70004FF080741C601B1F21F001011960191F89
:104A8000024B0B60143940380A6010BDA54900087C
:104A9000D0E9013201699A60D0E901235A604A687D
:104AA000824201D182684A60002202610868401E89
:104AB00008600868704700F108014FF0FF32C0E954
:104AC0000112C16001610021016070470021016194
:104AD000704730B50C68621C02D000F1080202E099
:104AE000026904E01A4653681D68A542FAD9536862
:104AF0004B6099608A60516008610168491C0160DF
:104B000030BD42684A6093688B60936859609160D9
:104B100008610168491C016070470000502080F363
:104B20001188BFF34F8FBFF36F8F02480168491C94
:104B300001607047D001002003490868401E0860EA
:104B400001D180F311887047D001002070B5002892
:104B50001BD0A0F108046068002816DA216800293B
:104B600013D120F00040606000F04EF9074D6068FE
:104B70006968084468602046FFF7E0FE2869401C29
:104B80002861BDE8704000F03DBA70BDB40100205E
:104B90004FF0E0200021016181610249416107215C
:104BA000016170473F19010010B5020009D000F003
:104BB0002BF900211046FFF769FD00F023FA0028C9
:104BC00007D104494FF080500860BFF34F8FBFF307
:104BD0006F8F10BD04ED00E070B50446FFF79EFF37
:104BE000214D04B92C68201DFFF752FF58B9E06A27
:104BF0001E4A00EB800152F8211021B901218140A9
:104C0000286988432861A06A18B104F11800FFF7E9
:104C10003FFF686A401C68622868844208D11348D4
:104C2000211DA030FFF76DFF6868401C686004E03C
:104C3000A868401EA860FFF7A7FEFFF77DFF286861
:104C4000844202D02046FFF7DDFD686900280AD0C3
:104C50002868844207D106494FF080500860BFF3AE
:104C60004F8FBFF36F8F70BD74010020D4110020EF
:104C700004ED00E070B5214D0446286884423CD024
:104C8000002C3AD0FFF74AFF2046FFF793FE80B38F
:104C9000201DFFF7FDFEE06A01212A6981401143D2
:104CA0002961174A00EB800002EB80004068A06099
:104CB0008168E1608368211D59608160E06A00EBD2
:104CC000800002EB80006061E06A00EB800052F837
:104CD0002010491C42F82010E06A2968C96A8842FD
:104CE00007D308494FF080500860BFF34F8FBFF3E0
:104CF0006F8FBDE87040FFF71FBF70BD74010020CB
:104D0000D411002004ED00E07CB50F480025CDE96A
:104D100000502B4610220DA10E4800F0BDF80A4CA1
:104D20002C3C01280ED1502080F31188BFF34F8F07
:104D3000BFF36F8F4FF0FF30A06201206061E5602C
:104D400000F092F8206B7CBDA001002049444C4546
:104D5000000000005D48000870B50446FFF7DEFE65
:104D6000264D04B92C68201DFFF792FE58B9E06A61
:104D7000234A00EB800152F8211021B90121814022
:104D8000286988432861A06A18B104F11800FFF768
:104D90007FFE1B48211DB430FFF7B3FE00200646FE
:104DA000211891F84820012A01D181F84860401C5F
:104DB0000128F5DBFFF7C0FE686928B1FFF7AEFEFA
:104DC000FFF7E2FDFFF7B8FE2868844209D1686961
:104DD00040B10C494FF080500860BFF34F8FBFF3D4
:104DE0006F8F70BD0648B4300068A968884201D151
:104DF0002E6070BDBDE8704000F00EB87401002058
:104E0000D411002004ED00E00248416B491C4163CD
:104E100070470000740100200E4A506B10B1012051
:104E2000D06170470020D06110690B49B0FA80F062
:104E3000C0F11F0000EB800001EB800000F10803CF
:104E4000416849684160994201D149684160C86838
:104E50001060704774010020D411002001484068A0
:104E600070470000B4010020094810B5016841F402
:104E700070010160016841F070410160FFF788FE38
:104E8000044900200860FBF7C3F9002010BD0000B2
:104E900020ED00E0D00100202DE9FF5F8346DDE931
:104EA0000E87994616468A469000FFF793FD050047
:104EB0001DD04C20FFF78EFD040015D04C21FBF7D0
:104EC000A6FB25630021CDE90241CDE900874B46D1
:104ED000324651465846FFF7EFFC2046FFF71AFCD2
:104EE000012004B0BDE8F09F2846FFF72FFE4FF0E9
:104EF000FF30F6E72DE9F041404E0025706B28B1F8
:104F0000B069401CB0612846BDE8F081F468641CBB
:104F1000F46008D1B06BF16BB163F063306A401C90
:104F20003062FFF731FDB06ADFF8D4E084420BD382
:104F30004FF0000CB06B0068A0B1B06BC068C168E6
:104F40004868844211D2B0623068C06A00EB8000C9
:104F50005EF82000012800D90125F0690028D2D090
:104F60000125D0E74FF0FF30EDE7D1E90232486983
:104F70009A60D1E902235A6043680A1D934201D125
:104F8000CB684360C1F814C003685B1E0360886A85
:104F900088B1D1E907379F60D1E907377B6047685F
:104FA00001F118039F4201D10B6A4360C1F828C088
:104FB00003685B1E0360C86A0123376983403B4373
:104FC000336100EB80000EEB8000406888608368EE
:104FD000CB6083685A608260C86A00EB80000EEB89
:104FE00080024A615EF82020521C4EF82020C86AD8
:104FF0003168C96A88429DD901259BE77401002068
:10500000D41100202DE9F0470024A146FFF786FDCA
:105010003E4D686B401E6863686B002871D1A868BC
:10502000DFF8ECC000264FF00108E0BB69E0DCF8D7
:105030000C00C468D4E90721A06A9160D4E9071282
:105040005160426804F118018A4201D1216A41602D
:10505000A6620168491E0160D4E90221606991607D
:10506000D4E9021251604268211D8A4201D1E268EE
:10507000426066610268521E0260E06A2F69434620
:1050800008FA00F23A432A61214A00EB80008C3A88
:1050900002EB80004068A0608768E76087687960FD
:1050A0008160E06A00E00FE000EB800002EB80012D
:1050B000616152F82010491C42F82010E06A29680A
:1050C000C96A884200D3EB61DCF800000028AED149
:1050D0000CB1FFF759FCAC693CB14746FFF70AFF3A
:1050E00000B1EF61641EF9D1AE61E86948B10949C8
:1050F0004FF080504FF001090860BFF34F8FBFF3AE
:105100006F8FFFF719FD4846BDE8F0877401002056
:105110006012002004ED00E010B500290AD00878E4
:10512000002807D005487844FBF7C4FA002801D0CE
:10513000002010BD0248784410BD0000B2260000D7
:10514000AA26000010B591EA030F48BF83F0004380
:1051500000F14084841A71EB030C05D2121943EB61
:105160000C03001B61EB0C01DFF824E14FEA115442
:10517000A4EB135C1EEA430F18BF9EEA445F73D092
:1051800023EA0E03DCF1200E21EA045143F48013DC
:1051900032D322FA0CFE10EB0E0023FA0CFE41EB88
:1051A0000E01CCF1200E03FA0EFE10EB0E0051F1B1
:1051B0000001B1F5801FCCF1200E32D201EB045179
:1051C00012FA0EF2BDE8104058BF7047401C38BFBD
:1051D0005FEA420218BF7047002814BF20F00100A8
:1051E00041F100014FEA410313F5001F38BF70473A
:1051F000A1F1C04100F09EBB012A43EB0302ACF1D8
:10520000200CDCF11F0E32BF4FF0000E23FA0CF31E
:1052100010EB030041EB0451B4EB115FD0D0A1EBD4
:10522000045101F5801149085FEA300001EB045197
:105230000ED350F1000038BF12FA0EFE08D1BDE8BF
:105240001040C9E7401C38BF5FEA4202CAD1C3E739
:10525000BDE810404FEA410313F5001F38BF704707
:10526000A1F1C04100F066BB9EEA445F08D011EA9C
:105270005E0FBDE8104004BF01F000410020704700
:10528000BDE8104070B500F007FB00BF64FBBE3EF8
:105290000000E0FF02494FF0000000F0CEBD00BF6B
:1052A0000000F87F491058BFC1F140415B1058BF62
:1052B000C3F140438B42EFF3008070472DE9C041BA
:1052C00030B4DFF8A0C23CEA111418BF3CEA131452
:1052D00000F0EC8081EA03051CEA111444EAD5745D
:1052E00018BF1CEA131500F0C780A4EB05044FF0AB
:1052F000004545EAC12145EAC32341EA505143EA4A
:10530000525304F17F74994204F500344FEAC020EF
:105310004FEAC22208BF904200F09C804FEA13651A
:105320000FF24016765D4FEA134506FB05F7C7F10D
:10533000807706FB07F74FEAD737A7FB036876426B
:10534000C8F58038A7FB06CE38BFA8F1010807FBD7
:1053500008E64FF0000EA6FB028CE6FB03CEDCF164
:10536000000CCEF1004E38BFAEF1010EA6FB0C587A
:105370004FF000074FF00005E6FB0E87A1FB08C6C3
:10538000A0FB07CE16EB0E0645F10005E1FB076515
:1053900015F1E04E7EBFA4F580345FEA46066D410C
:1053A00016F1800745F100054FEA17274FEA066618
:1053B00047EA0567A6F1DE46B6F1805F4FEA15259C
:1053C0001FD9384624F0010C05EBC471BCF1FE6F07
:1053D00001EB0C1102D8F0BCBDE8008124425CBF97
:1053E00001F5801E9EEAC47F02D4F0BCBDE80081B6
:1053F000244238D4F0BCA1F1C041BDE8004100F026
:1054000099BA4FEAD22242EA43524FEAD323A7FB8A
:1054100002864FEAD02040EA415007FB03661EEAAD
:105420000E0F4FEAD12105FB026658BFA6EB0056CE
:10543000B6EB00564FEA520E4EEAC37E18EB0E0E44
:1054400056EB530EBDD518EB02085E417F1C55F19B
:105450000005B6E74FF480154FF000074FF0000647
:105460004FF00008ADE7F0BC4FF0000001F1C04183
:1054700001F00041BDE8008111EA0C1F0CEA131590
:1054800000D00CE013EA0C1F00F025804FF0000064
:10549000F0BC81EA030101F00041BDE80081F0BCED
:1054A000BDE8004181EA030100F044BAF0BCBDE868
:1054B000004170B500F0F0F9097EFC3E00F007B83D
:1054C00081EA03014FF0000001F00041704781EADA
:1054D000030100F02FBAF0BCBDE800414FF000001E
:1054E00021497047FFFDFBF9F7F5F4F2F0EEEDEB23
:1054F000E9E8E6E4E3E1E0DEDDDBDAD8D7D5D4D3D2
:10550000D1D0CFCDCCCBCAC8C7C6C5C4C2C1C0BF1D
:10551000BEBDBCBBBAB9B8B7B6B5B4B3B2B1B0AF23
:10552000AEADACABAAA9A8A8A7A6A5A4A3A3A2A107
:10553000A09F9F9E9D9C9C9B9A99999897979695C2
:1055400095949393929191908F8F8E8E8D8C8C8B5E
:105550008B8A8989888887878685858484838382E6
:10556000828181800000FF070000F87F51EA030C70
:1055700017D41CF5801F58BFBCF5801F00F10680B2
:10558000994218BF704708BF9042704707D711F57E
:10559000801F58BF13F5801F19D499427047894264
:1055A00070471CF5801F08D5BCF5801FF7D58B42CE
:1055B00018BF704708BF824270474FF4001C1CEBB5
:1055C000410F38BF1CEB430F01D28B42704770B5BF
:1055D00000F062F9922449004FF000514FF08053DF
:1055E000FFF760BE4FEA41034FEA5353A3F58063D0
:1055F000D3F11E03C8BFD3F1210C0CDD4FF00042E4
:1056000042EAC12242EA505232FA03FC8CEAE17CBF
:10561000ACEBE1707047102BC4BF0020704703F55E
:10562000787CBCF1FF3F04D06FF0004282EA210099
:10563000704770B500F030F949922480002070471F
:10564000F2E700004FEA1153A3F58063D3F11E0384
:10565000A8BFD3F1200C08DB4FF0004242EAC12280
:1056600052EA505232FA03F0704709420BD4102B21
:10567000C4BF0020704703F5787CBCF1FF3F05D024
:105680004FF0FF3070474FF00000704770B500F0EA
:1056900003F900BF4992248000207047F0E710F022
:1056A000004248BF4042B0FA80F310FA03F10AD03A
:1056B000C3F11D0303F580634FEA415002EB03522F
:1056C00002EBD12170474FF00000704751EA030C04
:1056D00017D41CF5801F58BFBCF5801F00F1068051
:1056E000994218BF704708BF9042704707D711F51D
:1056F000801F58BF13F5801F19D499427047894203
:1057000070471CF5801F08D5BCF5801FF7D58B426C
:1057100018BF704708BF824270474FF4001C1CEB53
:10572000410F38BF1CEB430F01D28B42704770B55D
:1057300000F0B2F8922449004FF000514FF080532E
:10574000FFF7B0BDDFF848C170B51CEA111E1EBFDF
:105750001CEA13159EEA0C0F95EA0C0F00F06F80FF
:1057600081EA030423EA4C134EEAD47E21EA4C1169
:1057700041F4801143F48013AE44A1FB024CA0FB22
:105780000365AEF17F7E361955EB0C05A1FB034C8A
:105790004CF10003A0FB021C16EB0C06654153F113
:1057A0000003094218BF46F0010613F4007F0BD135
:1057B0004FEA03314FEA0530340341EA155140EA1C
:1057C00016506FF003020AE04FEAC3214FEAC520EA
:1057D000F40241EA555140EA56506FF0020202EBE2
:1057E0002E4201EB025585EACE710AD05FEA440CE5
:1057F00018BF24F0004450F1000041F1000120EAFC
:10580000D47040F2FE7C624500D270BDA84214BF45
:105810004FF080444FF04044002E08BF0024BEF1FA
:10582000806FA8BFA1F1C041BDE8704080F28280C6
:105830004FF0000001F1C04101F0004170479EEAC5
:105840000C0F0CEA131518BF95EA0C0F06D04FF099
:10585000000081EA030E0EF0004170BD00F01CF85C
:105860008900013E00F007B800F009B84FEA430C88
:105870005FEA5C5C08D081EA030100F05BB84FEAA4
:10588000410C5FEA5C5CF6D14FF0000001497047C3
:105890000000FF070000F87F0EF1020E2EF0030E4D
:1058A0005EF8046B364205D4012A43EB030515F577
:1058B000001F12D8012841EB010C1CF5001F0CD869
:1058C0000ED14FEAD17C15F5001F0CEB4C0C0CF1FE
:1058D000020C08BF4CEBD37C04E04FF0080C01E055
:1058E0004FEAD37C0CEB4C0526FA05F606F00706CA
:1058F000B6F1040C06D20EEB860CBDE870404CF0FD
:10590000010C6047DFE80CF0090B02024FF0004188
:105910004FF00000A1F5002170BD19461046012886
:1059200051EB010418BFD4F5001484BF002001F02E
:10593000004170BD0808A0F500114FEA3101704721
:1059400053EA010C17D41CF5801F58BFBCF5801F0B
:1059500000F106808B4218BF704708BF8242704733
:1059600007D713F5801F58BF11F5801F19D48B423C
:1059700070479B4270471CF5801F08D5BCF5801FFF
:10598000F7D5994218BF704708BF904270474FF44F
:10599000001C1CEB430F38BF1CEB410F01D2994296
:1059A00070470FB40CBC03BCFFF7C1BE91EA030FF4
:1059B00010B581F000413FF5CDAB83F0004300F01E
:1059C00009B8000010B591EA030F48BF83F0004307
:1059D0003FF5C0AB841A71EB030C07D212198CF09F
:1059E000004C43EB0C03001B61EB0C01DFF8A4E15E
:1059F0004FEA1154A4EB135C1EEA430F18BF9EEA52
:105A0000445F00F0B08023EA6E03524221EA045161
:105A1000C3EB6E0338BF5B1EDCF1200E25D322FAE8
:105A20000CFE10EB0E0043FA0CFE41EB0E01CCF124
:105A3000200E03FA0EFE10EB0E0051F10001CCF126
:105A4000200E29D412FA0EF201EB0451BDE81040E9
:105A500058BF7047401C1CBFB2F1004F7047002870
:105A60000CBF491C20F00100704712EB020E43EB03
:105A7000030218BF4FF0010E4EEA4202ACF1200CB7
:105A8000DCF11E0E54D943FA0CFE10EB0E0051F15E
:105A9000FF31CCF11E0ED5D50EF1010E12FA0EFE1D
:105AA000404141EB010101EB445C5FEA5C5C10D9D1
:105AB00010EBDE7001EB045138BFBEF1004FBDE8C2
:105AC000104018BF704700280CBF491C20F001008F
:105AD000704730D24FEAD42C11F5001124F4006441
